S0170000506F734C61626F7261746F72696F362E7372656327
S11300000C9434000C9451000C9451000C94510045
S11300100C9451000C9451000C9451000C94510018
S11300200C9451000C9451000C9451000C94510008
S11300300C9451000C9451000C9451000C945100F8
S11300400C9451000C9451000C94EC000C9451004D
S11300500C9451000C943F010C9451000C945100E9
S11300600C9451000C94510011241FBECFEFD8E022
S1130070DEBFCDBF11E0A0E0B1E0E4EBF2E002C0EE
S113008005900D92A437B107D9F721E0A4E7B1E0B8
S113009001C01D92A637B207E1F70E9490000C94AC
S11300A058010C9400008FE087B984B915B818B8CA
S11300B01092C000E1ECF0E080818869808386E0E2
S11300C08093C20087E690E09093C5008093C400BB
S11300D00895ECE7F0E01082808187668083EAE788
S11300E0F0E0108280818268808308959091C0003E
S11300F095FFFCCF8093C60008950F931F93CF9371
S11301008C01C0E003C00E947600CF5FF801EC0FC1
S1130110F11D80818111F7CFCF911F910F91089527
S1130120F8940E9453000E946900EAE7F0E080819D
S113013088648083789480E091E00E947D0084E369
S113014091E00E947D00FFCF1F93CF93DF9300D0F7
S113015000D0CDB7DEB781111DC080E30E947600C8
S11301602CC0E1E0F0E0EC0FFD1FE10FF11D9DEC70
S1130170899F912D1124969596959695392F330F35
S1130180232F220F220F230F821B805D8083892F50
S11301901F5F01C010E08111E4CF11500CC0E1E0F9
S11301A0F0E0EC0FFD1FE10FF11D17FDFA958081C2
S11301B00E9476001150112394F70F900F900F9026
S11301C00F90DF91CF911F910895982F92959F7072
S11301D08F7095B988B908951F920F920FB60F9238
S11301E011242F933F934F935F936F937F938F9338
S11301F09F93AF93BF93CF93EF93FF93C091C600A8
S113020080917401811117C0C13641F48AE00E94C3
S11302107600809175010E94A4001FC0C236E9F4E3
S11302208AE00E9476008DE591E00E947D0081E0E5
S11302308093740112C08AE00E9476008C2F0E9481
S113024076008FE691E00E947D008C2F0E94A4002E
S11302508C2F0E94E50010927401FF91EF91CF91D1
S1130260BF91AF919F918F917F916F915F914F91CA
S11302703F912F910F900FBE0F901F9018951F92D2
S11302800F920FB60F9211248F93EF93FF938091E7
S1130290790080937501EAE7F0E0808180648083CF
S11302A0FF91EF918F910F900FBE0F901F901895B3
S10702B0F894FFCFEC
S11302B450617261206D6F737472617220656C2079
S11302C476616C6F722064656C20706F74656E6304
S11302D4696F6D6574726F20696E677265736520EA
S11302E4610D0A0050617261206D6F7374726172E2
S11302F420656C20636F6469676F204153434949E7
S113030420696E677265736520620D0A00496E6721
S113031472657365206C61206C657472613A0020A7
S10703243D20000074
S9030000FC
