:100000000C943C000C9459000C9459000C94590029
:100010000C9472040C9459000C9459000C945900DF
:100020000C9459000C9459000C9459000C945900EC
:100030000C9459000C9459000C9459000C945900DC
:100040000C9459000C9459000C940B040C94590016
:100050000C9459000C94C1030C9459000C94590051
:100060000C9459000C94590076007B0081008700A5
:100070008D00930099009F0011241FBECFEFD8E0A0
:10008000DEBFCDBF12E0A0E0B1E0ECECFCE002C0CE
:1000900005900D92A032B107D9F722E0A0E2B2E0BC
:1000A00001C01D92A932B207E1F70E9477030C94B8
:1000B00064060C940000ACE7B0E01C929C91906444
:1000C0009C93882321F08C9180628C9305C0ACE7CF
:1000D000B0E08C918F7D8C93862F90E088309105D5
:1000E000A0F5FC01EC5CFF4F0C943B06ECE7F0E064
:1000F000808180832EC0ECE7F0E080818160808386
:1001000028C0ECE7F0E080818260808322C0ECE7C9
:10011000F0E08081836080831CC0ECE7F0E08081A8
:100120008460808316C0ECE7F0E080818560808386
:1001300010C0ECE7F0E08081866080830AC0ECE7C5
:10014000F0E080818760808304C0ECE7F0E080818C
:100150008083EAE7F0E0108280818868808344230E
:1001600021F080818062808305C0EAE7F0E0808131
:100170008F7D80832031310539F150F424303105F1
:10018000B9F028303105D1F022303105A9F50AC087
:100190002034310529F12038310541F12032310573
:1001A00059F518C0EAE7F0E0808181608083089506
:1001B000EAE7F0E08081826080830895EAE7F0E07A
:1001C0008081836080830895EAE7F0E08081846025
:1001D00080830895EAE7F0E0808185608083089558
:1001E000EAE7F0E08081866080830895EAE7F0E046
:1001F0008081876080830895EAE7F0E08081887FCE
:1002000080830895F999FECF92BD81BD60BD8FB303
:1002100084608FBB8FB382608FBB0895F999FECF46
:1002200092BD81BD8FB381608FBB80B5089587B1CA
:100230008C7F87B988B1836088B984B1816184B9C2
:1002400085B18E7E85B98AB180688AB98BB18F7786
:100250008BB90895E8E6F0E0808182608083ECE667
:10026000F0E0808183608083089590910001E091A7
:100270002001F0912101808198132CC090910101FF
:100280008181981327C0909102018281981322C026
:1002900090910301838198131DC080910401948182
:1002A000891303C0109224020895E0911E01F09179
:1002B0001F019481891304C081E080932402089572
:1002C000E0911C01F0911D019481891303C082E02B
:1002D00080932402089590910001E0911A01F09119
:1002E0001B01808198132EC0909101018181981388
:1002F00029C0909102018281981324C0909103013A
:10030000838198131FC080910401948189130AC0CE
:10031000809123028E7F8093230285E291E00E94E8
:10032000B1050895E0911801F091190194818913A4
:1003300009C08091230281608093230288E391E0C9
:100340000E94B105089590910001E0911601F0918D
:1003500017018081981326C0909101018181981323
:1003600021C090910201828198131CC090910301D9
:100370008381981317C0809104019481891306C06A
:10038000809123028D7F809323020895E0911401D0
:10039000F09115019481891305C080912302826038
:1003A000809323020895E0E0F1E0228130E02053C1
:1003B0003109838190E0C097880F982F990F990F8A
:1003C000890F94E6299F800D11249481890F805311
:1003D0000895CF930E94D301C82F853B08F0C4EB4A
:1003E00090910001E0910E01F0910F01808198132E
:1003F00013C090910101818198130EC0C093230115
:100400008BE491E00E94B105809123010E94C40514
:1004100086E391E00E94B10590910001E0910C010A
:10042000F0910D018081981313C090910101818199
:1004300098130EC0C093220183E591E00E94B1059C
:10044000809122010E94C40586E391E00E94B105DB
:1004500090910001E0910A01F0910B0180819813C5
:1004600013C090910101818198130EC0C0932102A5
:100470008BE591E00E94B105809121020E94C405A4
:1004800086E391E00E94B105CF910895909100011B
:10049000E0911201F0911301808198132EC0909188
:1004A00001018181981329C09091020182819813E2
:1004B00024C090910301838198131FC0809104018F
:1004C000948189130AC0809123028B7F8093230239
:1004D00086E691E00E94B1050895E0911001F09147
:1004E00011019481891309C0809123028460809353
:1004F000230281E791E00E94B1050895CF93DF9335
:10050000809125020E94CC048091280224EB289F30
:10051000C0011124EFEFF0E0BF010E940506362F65
:1005200080912702289FC0011124BF010E94050667
:10053000D62F80912602289FC0011124BF010E945E
:100540000506C62F832F0E94EA048D2F0E941905ED
:100550008C2F0E946D058C2F0E9480052FEF89EF54
:1005600090E0215080409040E1F700C00000DF9112
:10057000CF910895809123010E946D058091230100
:100580000E948005809121020E94EA04809122014C
:100590000E9419052FEF89EF90E021508040904094
:1005A000E1F700C000000895CF92DF92EF92FF9232
:1005B0000F931F93CF93DF93809123029091230297
:1005C0009270F92ED0912302D470982F917080FFF1
:1005D00007C08BE090E00E940E010E94EA0408C070
:1005E000911106C08AE090E00E940E010E94EA0488
:1005F0008CE090E00E940E01C4EBC89FC001112462
:100600000FEF10E0B8010E940506C62E8EE090E0C4
:100610000E940E01C89FC0011124B8010E94050666
:10062000E62E8DE090E00E940E01C89FC0011124CB
:10063000B8010E940506D62E8FE090E00E940E01C0
:10064000C89FC0011124B8010E940506C62F82E090
:10065000F8120AC08C2D0E9419058E2D0E946D057E
:100660008E2D0E9480050BC0F11009C08D2D0E94B7
:1006700019058C2F0E946D058C2F0E948005D430A7
:1006800021F48FEF0E94CC0405C0D11103C080E09B
:100690000E94CC04DF91CF911F910F91FF90EF90BA
:1006A000DF90CF90089580912202813069F46091AB
:1006B00026028EE090E00E940201609127028CE009
:1006C00090E00E94020110C080912202823061F409
:1006D000609126028FE090E00E9402016091270263
:1006E0008DE090E00E94020110922202089520E81D
:1006F00030E040E067E081E00E945B000E94480536
:100700000E9464050E94CE040E94E10448E050E08B
:1007100060E080E00E9488040E9417010E94930517
:100720000E942A017894EAE7F0E080818064808367
:100730008FE791E00E94B1050E945303809124024B
:10074000813069F018F0823099F0F6CF85B1816080
:1007500085B98BB18F778BB90E947E02EDCF85B1C1
:100760008E7F85B98BB180688BB90E94BA02E4CFC5
:1007700085B1816085B98BB180688BB90E94D40244
:10078000DBCF1F920F920FB60F9211248F939F937E
:10079000EF93FF93809124018530C1F018F48430E9
:1007A000E9F023C0863051F08730F9F48091790068
:1007B0008093280286E08093240117C080917900FD
:1007C0008093270285E0809324010FC080917900F7
:1007D0008093260284E08093240107C080917900F1
:1007E0008093250287E080932401ECE7F0E080818C
:1007F00090912401807F892B8083EAE7F0E080815B
:1008000080648083FF91EF919F918F910F900FBE35
:100810000F901F9018951F920F920FB60F921124F0
:100820001F932F933F934F935F936F937F938F9378
:100830009F93AF93BF93CF93DF93EF93FF938091F9
:10084000C6008A3081F08D3071F0E0912002E930ED
:10085000A8F5F0E0E050FF4F8083809120028F5F89
:10086000809320022BC0E0912002F0E0E050FF4F87
:1008700010820E94350180912402813021F0809104
:100880002402823051F40E946B010E94A3010E9455
:1008900046020E94E90110E00DC00E943501FBCF25
:1008A000C12FD0E0C050DF4F88810E94AA058DE2A1
:1008B00088831F5F1930A0F310922002FF91EF91FF
:1008C000DF91CF91BF91AF919F918F917F916F9168
:1008D0005F914F913F912F911F910F900FBE0F90FD
:1008E0001F9018951F920F920FB60F9211248F939D
:1008F000309903C081E080932202319903C082E0E5
:10090000809322028F910F900FBE0F901F90189529
:100910009AB190649AB994B59F7394BD15BC88231D
:1009200021F084B5806C84BD03C084B5806884BD2B
:10093000662321F084B5816084BD03C084B58360E3
:1009400084BD40345105C1F038F44130510561F0A7
:100950004830510569F01CC0411581E0580781F00D
:100960004115544089F014C085B5816085BD089556
:1009700085B5826085BD089585B5836085BD089580
:1009800085B5846085BD089585B5856085BD08956C
:1009900085B5816085BD089587BD089584B188605F
:1009A00084B9E0EBF0E01082A1EBB0E01C92808112
:1009B000836080838081806880838C9187608C9342
:1009C00008958AB188608AB9E0EBF0E080818062A6
:1009D000808308950F931F93082F10E020E030E0EC
:1009E000D901C801880F991FAA1FBB1F880F991F23
:1009F000AA1FBB1F880F991FAA1FBB1F880F991F13
:100A0000AA1FBB1F880F991FAA1FBB1FBC01CD01C6
:100A1000601B710B820B930B24EB30E040E050E045
:100A20000E941906285F3F4F2093B3001F910F913A
:100A300008950F931F93082F10E020E030E0D901B4
:100A4000C801880F991FAA1FBB1F880F991FAA1FD3
:100A5000BB1F880F991FAA1FBB1F880F991FAA1FB2
:100A6000BB1F880F991FAA1FBB1FBC01CD01601BB4
:100A7000710B820B930B24EB30E040E050E00E94BE
:100A80001906285F3F4F2093B4001F910F910895DE
:100A900084B1826084B9A0E8B0E01C92E1E8F0E0A3
:100AA00010828C9182608C938081886180838C918C
:100AB00080688C938081826080838FE39CE990932F
:100AC000870080938600089584B1846084B9E0E84B
:100AD000F0E08081806280830895282F30E0A8E6CE
:100AE000B0E10E94410624EB30E040E050E00E947B
:100AF0001906205E3C4F30938900209388000895AA
:100B0000282F30E0A8E6B0E10E94410624EB30E057
:100B100040E050E00E941906205E3C4F30938B006D
:100B200020938A0008958AB18E7F8AB98AB1826043
:100B30008AB91092C000E1ECF0E08081886980837E
:100B400086E08093C20087E690E09093C500809392
:100B5000C40008959091C00095FFFCCF8093C6001B
:100B600008950F931F93CF938C01C0E003C00E94A0
:100B7000AA05CF5FF801EC0FF11D80818111F7CF3D
:100B8000CF911F910F9108951F93CF93DF9300D0C2
:100B900000D0CDB7DEB781111DC080E30E94AA0549
:100BA0002CC0E1E0F0E0EC0FFD1FE10FF11D9DEC2A
:100BB000899F912D1124969596959695392F330FEF
:100BC000232F220F220F230F821B805D8083892F0A
:100BD0001F5F01C010E08111E4CF11500CC0E1E0B3
:100BE000F0E0EC0FFD1FE10FF11D17FDFA9580817C
:100BF0000E94AA051150112394F70F900F900F90A7
:100C00000F90DF91CF911F91089597FB072E16F457
:100C1000009407D077FD09D00E94500607FC05D04C
:100C20003EF4909581959F4F0895709561957F4F03
:100C30000895A1E21A2EAA1BBB1BFD010DC0AA1F1D
:100C4000BB1FEE1FFF1FA217B307E407F50720F035
:100C5000A21BB30BE40BF50B661F771F881F991FB0
:100C60001A9469F760957095809590959B01AC01F9
:100C7000BD01CF010895EE0FFF1F0590F491E02D07
:100C80000994A29FB001B39FC001A39F700D811D65
:100C90001124911DB29F700D811D1124911D089585
:100CA000AA1BBB1B51E107C0AA1FBB1FA617B70792
:100CB00010F0A61BB70B881F991F5A95A9F78095AE
:0C0CC0009095BC01CD010895F894FFCF81
:100CCC002D2D2D2D2D2D2D2D2D00D801DE01E401E6
:100CDC00EA01F001F601FC01020208020E02140204
:100CEC001A025A5A0743657272616E646F206DE185
:100CFC007363617261200A0041627269656E646F90
:100D0C00206DE17363617261200A0042617365209A
:100D1C003D2000436F646F203D20004DE173636103
:100D2C007261203D200041706167616E646F200A22
:100D3C0000456E63656E6469656E646F200A0050D1
:100D4C006172612063616D6269617220656C206DF6
:100D5C006F646F20696E6772657365206C612069C2
:100D6C006E737472656363696F6E202A4D4F443ADB
:100D7C002A20736567756964612064656C206E75E3
:100D8C006D65726F2064656C206D6F646F20646597
:100D9C00736561646F200A004D3A2D2D2D00433A86
:100DAC002D2D2D00423A2D2D2D004C45443A31006D
:100DBC004C45443A300041524D3A310041524D3A83
:100DCC0030004D534B3A31004D534B3A30004D4FA0
:100DDC00443A32004D4F443A31004D4F443A3000C2
:00000001FF
