:100000000C9434000C9446000C9446000C9446006A
:100010000C9446000C9446000C9446000C94460048
:100020000C9446000C9446000C9446000C94460038
:100030000C9446000C9446000C9440010C9446002D
:100040000C9431010C9446000C9446000C9446002C
:100050000C9446000C94DC000C9446000C94460072
:100060000C9446000C94460011241FBECFEFD8E03C
:10007000DEBFCDBF21E0A0E0B1E001C01D92A43001
:10008000B207E1F70E94A3000C94D9010C94000080
:10009000ECE7F0E010828081806680838081876059
:1000A000808387E080930001EAE7F0E0108280819E
:1000B0008F688083089584B1816084B985B18E7F13
:1000C00085B914BC85E085BD83E080936E000895FA
:1000D00084B1886084B9E0EBF0E0108283E880832B
:1000E00087E08093B10008950F931F93082F10E0CD
:1000F00020E030E0D901C801880F991FAA1FBB1F5B
:10010000880F991FAA1FBB1F880F991FAA1FBB1F0B
:10011000880F991FAA1FBB1F880F991FAA1FBB1FFB
:10012000BC01CD01601B710B820B930B24EB30E003
:1001300040E050E00E949401285F3F4F2093B300BD
:100140001F910F9108950E9448000E945B007894CF
:100150000E9451010E94680080910101EAE7F0E0ED
:10016000808180648083809101010E944F01809191
:10017000030124EB289FC0011124EFEFF0E0BF0141
:100180000E948001362F80910201289FC001112416
:10019000BF010E948001C62F832F0E946D018C2F0A
:1001A0000E9474002FEF89EF90E021508040904032
:1001B000E1F700C00000D7CF1F920F920FB60F9249
:1001C00011248F93EF93FF9380910001863099F073
:1001D000873019F0853059F51CC0809179008093E3
:1001E000030186E080930001ECE7F0E08081807FEE
:1001F0008660808329C0809179008093020185E028
:1002000080930001ECE7F0E08081807F856080834F
:100210001BC0809179008093010187E080930001E9
:10022000ECE7F0E08081807F876080830DC0809163
:1002300079008093010187E080930001ECE7F0E012
:100240008081807F87608083EAE7F0E0808180643E
:100250008083FF91EF918F910F900FBE0F901F90B1
:1002600018951F920F920FB60F9211248F9385B19C
:10027000816085B98F910F900FBE0F901F901895D8
:100280001F920F920FB60F9211248F9385B18E7F1C
:1002900085B98F910F900FBE0F901F90189587BD55
:1002A000089584B1826084B9A0E8B0E01C92E1E8CE
:1002B000F0E010828C9182608C93808188618083D1
:1002C0008C9180688C938081826080838FE39CE92D
:1002D00090938700809386000895282F30E0A8E649
:1002E000B0E10E94B60124EB30E040E050E00E9413
:1002F0009401205E3C4F309389002093880008953C
:1003000097FB072E16F4009407D077FD09D00E94C2
:10031000C50107FC05D03EF4909581959F4F089547
:10032000709561957F4F0895A1E21A2EAA1BBB1B01
:10033000FD010DC0AA1FBB1FEE1FFF1FA217B307B1
:10034000E407F50720F0A21BB30BE40BF50B661FC7
:10035000771F881F991F1A9469F76095709580958B
:1003600090959B01AC01BD01CF010895A29FB00102
:10037000B39FC001A39F700D811D1124911DB29FD9
:10038000700D811D1124911D0895AA1BBB1B51E105
:1003900007C0AA1FBB1FA617B70710F0A61BB70BF5
:1003A000881F991F5A95A9F780959095BC01CD019A
:0603B0000895F894FFCF50
:00000001FF
