:100000000C9434000C943E000C943E000C943E0082
:100010000C943E000C943E000C943E000C943E0068
:100020000C943E000C943E000C943E000C943E0058
:100030000C943E000C943E000C943E000C943E0048
:100040000C943E000C943E000C946B000C943E000B
:100050000C943E000C943E000C943E000C943E0028
:100060000C943E000C943E0011241FBECFEFD8E04C
:10007000DEBFCDBF0E9463000C9491000C94000081
:100080008FE087B984B915B818B81092C000E1ECB8
:10009000F0E080818869808386E08093C20087E6F3
:1000A00090E09093C5008093C40008959091C000A3
:1000B00095FFFCCF8093C600982F92959F708F700C
:1000C00095B988B90895F8940E94400078948AE41C
:1000D0000E945600FFCF1F920F920FB60F9211246D
:1000E0002F933F934F935F936F937F938F939F9340
:1000F000AF93BF93EF93FF938091C6000E94560089
:10010000FF91EF91BF91AF919F918F917F916F91EF
:100110005F914F913F912F910F900FBE0F901F90C5
:060120001895F894FFCFD2
:00000001FF
