:100000000C9434000C9446000C9446000C9446006A
:100010000C9446000C9446000C9446000C94460048
:100020000C9446000C9446000C9446000C94460038
:100030000C9446000C9446000C9446000C94460028
:100040000C9446000C9446000C9446000C94460018
:100050000C9446000C94C7000C9446000C94460087
:100060000C9446000C94460011241FBECFEFD8E03C
:10007000DEBFCDBF21E0A0E0B1E001C01D92A33002
:10008000B207E1F70E9496000C9482010C940000E4
:10009000ECE7F0E01082808180668083808186605A
:1000A000808386E080930001EAE7F0E0108280819F
:1000B0008F688083089584B1886084B9E0EBF0E0B4
:1000C000108283E8808387E08093B10008950F93C6
:1000D0001F93082F10E020E030E0D901C801880FFD
:1000E000991FAA1FBB1F880F991FAA1FBB1F880F2C
:1000F000991FAA1FBB1F880F991FAA1FBB1F880F1C
:10010000991FAA1FBB1FBC01CD01601B710B820B85
:10011000930B24EB30E040E050E00E943D01285F6B
:100120003F4F2093B3001F910F9108950E94480004
:1001300078940E94FA000E945B00EAE7F0E0808178
:10014000806480838091020124EB289FC0011124E8
:10015000EFEFF0E0BF010E942901362F80910101ED
:10016000289FC0011124BF010E942901C62F832F9F
:100170000E9416018C2F0E9467002FEF89EF90E0FC
:10018000215080409040E1F700C00000DBCF1F927B
:100190000F920FB60F9211248F93EF93FF938091DC
:1001A000000181110EC0809179008093020181E0ED
:1001B00080930001ECE7F0E08081807F876080839E
:1001C0000CC0809179008093010110920001ECE74E
:1001D000F0E08081807F86608083EAE7F0E08081C4
:1001E00080648083FF91EF918F910F900FBE0F90ED
:1001F0001F90189584B1826084B9A0E8B0E01C9289
:10020000E1E8F0E010828C9182608C9380818861BB
:1002100080838C9180688C938081826080838FE35F
:100220009CE990938700809386000895282F30E002
:10023000A8E6B0E10E945F0124EB30E040E050E02E
:100240000E943D01205E3C4F30938900209388003E
:10025000089597FB072E16F4009407D077FD09D078
:100260000E946E0107FC05D03EF4909581959F4F4A
:100270000895709561957F4F0895A1E21A2EAA1BEB
:10028000BB1BFD010DC0AA1FBB1FEE1FFF1FA21746
:10029000B307E407F50720F0A21BB30BE40BF50B43
:1002A000661F771F881F991F1A9469F760957095CC
:1002B000809590959B01AC01BD01CF010895A29F4F
:1002C000B001B39FC001A39F700D811D1124911D2A
:1002D000B29F700D811D1124911D0895AA1BBB1B97
:1002E00051E107C0AA1FBB1FA617B70710F0A61B36
:1002F000B70B881F991F5A95A9F780959095BC0157
:08030000CD010895F894FFCF30
:00000001FF
