:100000000C9434000C9449000C9449000C94490061
:100010000C9449000C9449000C9449000C9449003C
:100020000C9449000C9449000C9449000C9449002C
:100030000C9449000C9449000C9449000C9449001C
:100040000C9449000C9449000C948C000C944900C9
:100050000C9449000C9449000C9449000C944900FC
:100060000C9449000C94490011241FBECFEFD8E036
:10007000DEBFCDBF11E0A0E0B1E0E8E6F1E002C0F4
:1000800005900D92A630B107D9F70E9481000C941B
:10009000B2000C9400008FE087B984B915B818B885
:1000A0001092C000E1ECF0E080818869808386E0F6
:1000B0008093C20087E690E09093C5008093C400CF
:1000C00008959091C00095FFFCCF8093C600982FB3
:1000D00092959F708F7095B988B908950F931F936B
:1000E000CF938C01C0E003C00E946100CF5FF80194
:1000F000EC0FF11D80818111F7CFCF911F910F91EE
:100100000895F8940E944B00789480E091E00E945A
:100110006E0080E090E008951F920F920FB60F924C
:1001200011242F933F934F935F936F937F938F93FC
:100130009F93AF93BF93EF93FF938091C6000E946C
:100140006100FF91EF91BF91AF919F918F917F914E
:100150006F915F914F913F912F910F900FBE0F9034
:080160001F901895F894FFCFE1
:06016800486F6C6100000D
:00000001FF
