:100000000C9434000C9446000C9446000C9446006A
:100010000C9446000C9446000C9446000C94460048
:100020000C9446000C9446000C9446000C94460038
:100030000C9446000C9446000C9446000C94460028
:100040000C9446000C9446000C9446000C94460018
:100050000C9446000C9476000C9446000C944600D8
:100060000C9446000C94460011241FBECFEFD8E03C
:10007000DEBFCDBF21E0A0E0B1E001C01D92A13004
:10008000B207E1F70E9455000C9417010C94000090
:10009000ECE7F0E01082808187668083EAE7F0E099
:1000A000108280818F68808308950E944800789430
:1000B0000E948F00EAE7F0E0808180648083809175
:1000C000000124EB829FC00111246FEF70E00E94B9
:1000D000BE00862F0E94AB008FEF99EF20E0815089
:1000E00090402040E1F700C00000E9CF1F920F923E
:1000F0000FB60F9211248F93EF93FF9380917900A5
:1001000080930001EAE7F0E0808180648083FF91C2
:10011000EF918F910F900FBE0F901F90189584B1A3
:10012000826084B9A0E8B0E01C92E1E8F0E01082BF
:100130008C9182608C938081886180838C918068AF
:100140008C938081826080838FE39CE99093870009
:10015000809386000895282F30E0A8E6B0E10E9441
:10016000F40024EB30E040E050E00E94D200205E3A
:100170003C4F3093890020938800089597FB072E09
:1001800016F4009407D077FD09D00E94030107FC04
:1001900005D03EF4909581959F4F08957095619597
:1001A0007F4F0895A1E21A2EAA1BBB1BFD010DC0B3
:1001B000AA1FBB1FEE1FFF1FA217B307E407F50717
:1001C00020F0A21BB30BE40BF50B661F771F881FF3
:1001D000991F1A9469F760957095809590959B0189
:1001E000AC01BD01CF010895A29FB001B39FC00132
:1001F000A39F700D811D1124911DB29F700D811D53
:100200001124911D0895AA1BBB1B51E107C0AA1F11
:10021000BB1FA617B70710F0A61BB70B881F991FA7
:100220005A95A9F780959095BC01CD010895F89451
:02023000FFCFFE
:00000001FF
